:100000000C94D9050C9453390C9480390C94010646
:100010000C9401060C9401060C9401060C94010644
:100020000C9401060C9401060C9401060C94010634
:100030000C9401060C9401060C9401060C94010624
:100040000C94AD390C9401060C9401060C94010635
:100050000C9401060C9401060C9401060C94010604
:100060000C9401060C9401063C2F626F64793E3CAF
:100070002F68746D6C3E003C6D657461206874740B
:10008000702D65717569763D22726566726573685B
:100090002220636F6E74656E743D22303B20555292
:1000A0004C3D007377742E68746D6C00223E003CEA
:1000B000666F726D20616374696F6E3D222F0073ED
:1000C00065747570706F73740022206D6574686F4D
:1000D000643D22706F7374223E000A3C74723E00CD
:1000E0000A093C74643E003C2F74643E003C2F744B
:1000F000723E0A003C2F74626F64793E0A3C2F7492
:1001000061626C653E0A003C696E7075742074799A
:1001100070653D227375626D6974222076616C751D
:10012000653D2253617665222F3E3C2F666F726DCE
:100130003E003C62722F3E003C68323E4F74686560
:10014000723C2F68323E005370656320636F6465B4
:100150000054696D65207A6F6E65205B686F7572FB
:100160005D3A005661636174696F6E205B6461790A
:10017000735D3A003C7461626C6520626F72646505
:10018000723D2230222063656C6C70616464696E1C
:10019000673D220032222063656C6C737061636975
:1001A0006E673D223200223E0A3C74626F64793EE3
:1001B0000A003C74686561643E3C74723E3C74683D
:1001C0003E4E616D653C2F74683E3C74683E4368EA
:1001D0006E3C2F74683E3C74683E416464723C2FF0
:1001E00074683E3C74683E4E6D2F546D2F436E3CD8
:1001F0002F74683E3C74683E4E6D2F56632F414FFE
:100200002F53703C2F74683E3C2F74686561643EC8
:10021000003C74686561643E3C74723E3C74683EA8
:100220004465762049443C2F74683E3C74683E54D3
:10023000696D65206F6E3C2F74683E3C74683E4467
:10024000617973206F6E3C2F74683E3C74683E5435
:10025000696D65206F66663C2F74683E3C74683E2D
:1002600044617973206F66663C2F74683E3C2F743E
:10027000723E3C2F74686561643E003C68323E45C6
:1002800076656E74733C2F68323E003C68323E44A3
:100290006576696365733C2F68323E003C73656C1C
:1002A000656374206E616D653D22000A09093C6F2B
:1002B0007074696F6E002073656C656374656400AB
:1002C0002076616C75653D22003C2F6F7074696FFC
:1002D0006E3E003C2F73656C6563743E006E2F614B
:1002E00020283029000A09093C696E707574207451
:1002F0007970653D22726164696F22206E616D655F
:100300003D2200222076616C75653D22002220632B
:100310006865636B65642F3E00222F3E0022003C1F
:100320002F6469763E0A002B00093C6469762063DD
:100330006C6173733D2261646431220020616464E6
:10034000302200093C64697620636C6173733D223E
:10035000737769746368206600093C64697620637A
:100360006C6173733D227377697463682074000A4B
:100370003C6469762069643D73773E0A00273B221E
:10038000207374796C653D22637572736F723A7075
:100390006F696E7465723B223E006164643D006368
:1003A0006D643D00206F6E436C69636B3D22646F2A
:1003B00063756D656E742E6C6F636174696F6E2EFC
:1003C000687265663D277377742E68746D6C3F00A4
:1003D00053746174757300536574757000343031F3
:1003E00020556E617574686F72697A656421003496
:1003F0003034204E6F7420666F756E6421003C6C43
:10040000693E3C6120687265663D22687474707351
:100410003A2F2F7777772E66616365626F6F6B2E49
:10042000636F6D2F6175746F706F77223E41626FDD
:1004300075743C2F613E3C2F6C693E003C6C693EFC
:100440003C6120687265663D227377742E68746D16
:100450006C223E5374617475733C2F613E3C2F6C6B
:10046000693E3C6C693E3C6120687265663D227362
:1004700074702E68746D6C223E53657475703C2FD9
:10048000613E3C2F6C693E003C2F68313E000A23E0
:100490007377003F636C6B3D31223E003F766163B2
:1004A0003D32223E000A3C68313E006E6F726D6143
:1004B0006C007661636174696F6E003C2F613E3C35
:1004C0002F6C693E003C6C693E3C61206872656639
:1004D0003D22000A237377206469762E61646430BC
:1004E000207B626F726465722D72696768743A303E
:1004F00070783B6D696E2D77696474683A37656D05
:100500003B70616464696E673A31656D2030656D7A
:100510002031656D2031656D3B7D0A237377206442
:1005200069762E61646431207B626F726465722D1E
:1005300072696768743A31707820736F6C696420EF
:10054000236363633B6D696E2D77696474683A3128
:10055000656D3B70616464696E673A31656D203129
:10056000656D2031656D2031656D3B7D000A23731B
:1005700077206469762E737769746368207B6D6970
:100580006E2D77696474683A39656D3B7061646497
:10059000696E673A31656D2032656D2031656D2079
:1005A00031656D3B626F726465722D726967687444
:1005B0003A31707820736F6C696420236363633B06
:1005C0007D000A23737720646976207B666C6F61F7
:1005D000743A6C6566743B6D617267696E3A302E71
:1005E00035656D3B746578742D6465636F726174F5
:1005F000696F6E3A6E6F6E653B636F6C6F723A2314
:100600003036363B646973706C61793A626C6F6343
:100610006B7D000A3C2F7374796C653E0A000A23D7
:100620007377206469762E66000A237377206469E5
:10063000762E7400236630303B7D00233066303BDD
:100640007D00207B626F726465722D6C6566743A02
:100650002031656D20736F6C696420000A236E6120
:1006600076000A236E6176206C6920613A686F76A5
:100670006572207B636F6C6F723A236330303B622C
:1006800061636B67726F756E642D636F6C6F723A26
:10069000236666663B7D000A236E6176206C6920C6
:1006A00061207B646973706C61793A626C6F636B13
:1006B0003B70616464696E673A38707820313570D8
:1006C000783B626F726465722D72696768743A3143
:1006D000707820736F6C696420236363633B636F7E
:1006E0006C6F723A233036393B746578742D6465CB
:1006F000636F726174696F6E3A6E6F6E653B7D00F9
:100700000A236E6176206C69207B666C6F61743A97
:100710006C6566743B7D00207B77696474683A3150
:100720003030253B666C6F61743A6C6566743B6D66
:10073000617267696E3A303B70616464696E673AF2
:10074000303B6261636B67726F756E642D636F6CB3
:100750006F723A236632663266323B626F7264654C
:10076000722D626F74746F6D3A31707820736F6C94
:10077000696420236363633B626F726465722D74E6
:100780006F703A31707820736F6C696420236363F3
:10079000633B7D003C7374796C653E0A626F6479DB
:1007A000207B666F6E742D7765696768743A626F37
:1007B0006C643B666F6E742D66616D696C793A731B
:1007C000616E732D73657269663B746578742D6410
:1007D00065636F726174696F6E3A6E6F6E653B6CC4
:1007E0006973742D7374796C653A6E6F6E653B7DB9
:1007F0000A6831207B6261636B67726F756E643A61
:10080000233036393B70616464696E673A32656DD6
:100810002031656D2031656D2031656D3B636F6CF6
:100820006F723A77686974653B626F726465722DA6
:100830007261646975733A31307078203130707844
:100840003B7D0A6832207B6261636B67726F756EF5
:10085000643A233041413B70616464696E673A30A9
:100860002E35656D3B636F6C6F723A77686974659E
:100870003B626F726465722D7261646975733A359B
:1008800070783B7D003C2F756C3E003C756C206998
:10089000643D226E6176223E003C68746D6C3E0AB7
:1008A0003C686561643E3C7469746C653E41757476
:1008B0006F706F7765723C2F7469746C653E3C2F66
:1008C000686561643E0A3C626F64793E0A000A0909
:1008D000093C696E70757420747970653D22636897
:1008E00065636B626F7822206E616D653D22002F1B
:1008F0003E002076616C75653D2200746578740059
:1009000070617373776F72640022206E616D653D54
:100910002200222073697A653D220022206D6178D1
:100920006C656E74683D22003C696E70757420744D
:100930007970653D22003C2F6C6162656C3E002F32
:100940003E2000636865636B6564200027200027F4
:100950002076616C75653D270027206E616D653DD1
:1009600027003C6C6162656C3E3C696E707574205A
:10097000747970653D2700485454502F312E302033
:1009800033303320536565204F746865720D0A5308
:1009900065727665723A205765626475696E6F2F6D
:1009A000312E370D0A4C6F636174696F6E3A200007
:1009B000485454502F312E3020323030204F4B0DC0
:1009C0000A5365727665723A205765626475696E7E
:1009D0006F2F312E370D0A4163636573732D436F9B
:1009E0006E74726F6C2D416C6C6F772D4F726967EE
:1009F000696E3A202A0D0A436F6E74656E742D5429
:100A00007970653A2000485454502F312E302035EB
:100A1000303020496E7465726E616C205365727659
:100A20006572204572726F720D0A53657276657237
:100A30003A205765626475696E6F2F312E370D0A43
:100A4000436F6E74656E742D547970653A207465C9
:100A500078742F68746D6C0D0A0D0A004854545058
:100A60002F312E302034303120417574686F726917
:100A70007A6174696F6E2052657175697265640D73
:100A80000A5365727665723A205765626475696EBD
:100A90006F2F312E370D0A436F6E74656E742D54AF
:100AA0007970653A20746578742F68746D6C0D0ADE
:100AB0005757572D41757468656E74696361746525
:100AC0003A204261736963207265616C6D3D224119
:100AD00075746F506F776572220D0A0D0A0000550C
:100AE0007365722D6167656E743A202A0D0A446938
:100AF00073616C6C6F773A202F0D0A004854545084
:100B00002F312E3020343030204261642052657104
:100B1000756573740D0A5365727665723A20576570
:100B2000626475696E6F2F312E370D0A436F6E74D4
:100B3000656E742D547970653A20746578742F68E9
:100B4000746D6C0D0A0D0A000000000024002700DF
:100B50002A0000000000250028002B0000000000F3
:100B600023002600290004040404040404040202EF
:100B7000020202020303030303030102040810201C
:100B80004080010204081020010204081020000027
:100B9000000700020100000304060000000000003E
:100BA0000000931E0A212E27FD294F2B472D202FB1
:100BB000663B11241FBECFEFD8E0DEBFCDBF12E0F1
:100BC000A0E0B1E0E8E2FCE702C005900D92A03D94
:100BD000B107D9F717E0A0EDB2E001C01D92A4362D
:100BE000B107E1F71BE0C2EBDBE004C02297FE0196
:100BF0000E94CC3DC23AD107C9F70E94DF3B0C945A
:100C0000123E0C940000A0E0B0E0E9E0F6E00C94A5
:100C1000E33DEC01A880B980CA80DB80A114B10457
:100C2000C104D10441F484E2A82E89EDB82E8BE5ED
:100C3000C82E87E0D82EC601B5012DE133EF41E083
:100C400050E00E94AF3D27EA31E440E050E00E94CE
:100C50003B3D7B018C01C601B5012DE133EF41E045
:100C600050E00E94AF3DCA01B9012CEE34EF4FEFC6
:100C70005FEF0E943B3D6E0D7F1D801F911F97FF10
:100C800004C06150704080409048688379838A83B3
:100C90009B839B01AC015F77B901CA01CDB7DEB779
:100CA000EAE00C94FF3D0E940306089587E192E07C
:100CB0000E940306089560931702709318028093B0
:100CC000190290931A020895A0E0B0E0EAE6F6E077
:100CD0000C94DC3DEC012B016A016115710519F0E2
:100CE000FB0191838083C114D10449F0C6010297AE
:100CF000839728F020E030E040E050E0DCC0A9908D
:100D00008A2D90E00E94D03D892BC9F7FDE2AF16F5
:100D100021F4A9903324339405C08BE2A81609F47A
:100D2000A9903324C114D10421F0E0E1CE16D104FE
:100D300011F5F0E3AF1669F48881883711F0883532
:100D400041F4A980229682E0382A20E1C22ED12CDB
:100D500012C0C114D10479F4E0E3AE1659F199E957
:100D6000E92E99E9F92E99E9092F99E1192F8AE0DD
:100D7000C82ED12C3AC0FAE0CF16D10491F080E110
:100D8000C816D10429F0E8E0CE16D104F9F415C054
:100D9000BFEFEB2EBFEFFB2EBFEF0B2FBFE01B2FE4
:100DA00024C0A9E9EA2EA9E9FA2EA9E90A2FA9E1A6
:100DB0001A2F1BC0F8E0CF2ED12CEFEFEE2EEFEF65
:100DC000FE2EEFEF0E2FEFE11E2F0FC096014427EE
:100DD00037FD4095542F6FEF7FEF8FEF9FEF0E940D
:100DE0008D3DC901DA017C018D0120E030E040E059
:100DF00050E060E03601882477FC8094982C70EDF8
:100E0000B72EBA0CF9E0FB1570F48A2D81548A31A3
:100E100018F499ECB92E06C08A2D81568A3148F50E
:100E200089EAB82EBA0C8B2D90E08C159D050CF537
:100E30006F3FE9F0E216F30604071507B8F0CA01A0
:100E4000B901A40193010E943B3D9B01AC018B2D94
:100E500090E0A0E0B0E0280F391F4A1F5B1F281761
:100E600039074A075B0710F061E001C06FEFA990F6
:100E7000C6CF4114510451F0662311F0219703C0ED
:100E800031FE04C02297F201D183C08330FE07C037
:100E900050954095309521953F4F4F4F5F4F67FFDD
:100EA0000AC082E290E090936307809362072FEF7D
:100EB0003FEF4FEF5FEFB901CA01CDB7DEB7E1E118
:100EC0000C94F83DFC0188279927E8942191203261
:100ED000E9F3293010F02E30C8F32B3241F02D32D7
:100EE00039F4689404C00E944E08820F911D21912C
:100EF00020532A30C0F31EF4909581959F4F08959A
:100F00001F93FC0199278827BC01E89411911032A6
:100F1000E9F3193010F01E30C8F31B3251F01D32C6
:100F200049F4689406C00E943908610F711D811D43
:100F3000911D119110531A30B0F33EF490958095A5
:100F4000709561957F4F8F4F9F4F1F910895FB01C3
:100F5000DC0104C08D910190801921F44150504072
:100F6000C8F7881B990B0895DC0101C06D934150AF
:100F70005040E0F70895FC018191861721F0882305
:100F8000D9F7992708953197CF010895FB01DC0126
:100F90008D91019080190110D9F3990B0895FB01EF
:100FA000DC0101900D920020E1F70895FB01DC01C6
:100FB0004150504030F08D910190801919F400207B
:100FC000B9F7881B990B0895FB019F01E894423003
:100FD000C4F04532B4F44A3029F497FB1EF49095DE
:100FE00081959F4F642F77270E94663D805D8A33ED
:100FF0000CF0895D8193CB010097A1F716F45DE2B7
:1010000051931082C9010C945608FA01CF93FF93B3
:10101000EF93223044F1253234F5C22FE894CA30E0
:1010200049F497FB3EF490958095709561957F4FBC
:101030008F4F9F4F2C2F332744275527FF93EF9334
:101040000E948D3DEF91FF91605D6A330CF0695D08
:101050006193B901CA01605070408040904051F7DF
:1010600016F4CDE2C19310828F919F91CF910C9491
:101070005608592F482F372F262F660F771F881FA6
:10108000991F660F771F881F991F620F731F841F98
:10109000951F660F771F881F991F08957AE0979F05
:1010A000902D879F802D910D11240895DC01FC0166
:1010B000672F71917723E1F7329704C07C916D938C
:1010C00070836291AE17BF07C8F30895262F8093EF
:1010D00021026A3038F480E380932202205D20935D
:1010E00023020DC0862F6AE00E945A3D805D8093E6
:1010F0002202822F0E945A3D905D9093230281E24A
:1011000092E00895EF92FF920F931F93DF93CF9396
:1011100000D000D000D0CDB7DEB780E195E00E94CE
:10112000942F18161906CCF30BE215E080E3F801B2
:1011300011928A95E9F783EE80932B0510922C0586
:1011400086E080932D058CEE80932E0591E390939D
:1011500037058EE4809338059093390584E38093B6
:101160003A058DEC92E09A83898380912A069091CA
:101170002B06A0912C06B0912D068B839C83AD830A
:10118000BE8380E195E0BE016F5F7F4F4BE750E08B
:101190000E94083080E195E0B80140E350E00E94F1
:1011A000E82F80E195E00E9403300E94F5397B0131
:1011B0008C0152C080E195E00E94942FC0970CF4FE
:1011C0004BC080E195E06BE275E040E350E00E94A7
:1011D000462FE0905305FF2400E010E01E2D00276D
:1011E000FF24EE248091540590E0A0E0B0E0DC0103
:1011F00099278827E82AF92A0A2B1B2B8091560564
:1012000090E0A0E0B0E0E82AF92A0A2B1B2B6091BD
:10121000E702772767FD7095872F972F20E13EE043
:1012200040E050E00E943B3D9B01AC0120583E470E
:101230004A4A53488091550590E0A0E0B0E0BA2FAB
:10124000A92F982F8827E82AF92A0A2B1B2B2E0D65
:101250003F1D401F511F10C00E94F5396E197F09B4
:10126000800B910B6C5D75408040904008F4A2CFDC
:1012700020E030E040E050E0B901CA0126960FB608
:10128000F894DEBF0FBECDBFCF91DF911F910F91BC
:10129000FF90EF900895EF92FF920F931F93CF93DB
:1012A000DF93062F142FE0901606F0901706C82F34
:1012B000D0E0FE01EE0FFF1FEE0FFF1FE856FB4FC1
:1012C00060817181828193810E94EA1FBC01112398
:1012D00009F05EC010E0F801EE0FFF1FEE0FFF1FD8
:1012E000EC50FC4F2081318142815381CB01AA27F0
:1012F00097FDA095BA2F820F931FA41FB51F489783
:10130000A105B10580F080911606909117068630F0
:1013100091051CF0EE24FF2404C07C010894E11C1C
:10132000F11C28513040260F371FFE01E450FB4FBF
:10133000808190E002C095958795EA94E2F780FF5E
:101340005FC080911806909119062817390709F097
:1013500057C0CC0FDD1FCC0FDD1FC856DB4F688197
:1013600079818A819B810E94E41F20911A06309125
:101370001B068217930709F043C090E00C501D4FE5
:10138000F8018081813009F091E081E0982739C02F
:10139000FE01E851FB4F808190E00090160602C0EC
:1013A000959587950A94E2F780FF2AC0CC0FDD1F40
:1013B000CC0FDD1FC85BDB4F688179818A819B81FF
:1013C0000E94EA1F20911806309119068217930790
:1013D000B9F4688179818A819B810E94E41F209100
:1013E0001A0630911B068217930751F4E02FF0E0A4
:1013F000EC50FD4F6081611161E091E0962701C0E2
:1014000090E0892FDF91CF911F910F91FF90EF9086
:101410000895EF92FF920F931F937B018C010E941E
:10142000EA1F9C018A3091052CF480E380931B0213
:10143000822F0CC06AE070E00E947A3D605D60938C
:101440001B02C9016AE070E00E947A3D805D8093D2
:101450001C02C801B7010E94E41F9C018A3091055B
:101460002CF480E380931E02822F0CC06AE070E0AF
:101470000E947A3D605D60931E02C9016AE070E0DF
:101480000E947A3D805D80931F028BE192E01F9164
:101490000F91FF90EF9008954F925F926F927F921D
:1014A0008F929F92AF92BF92CF92DF92EF92FF9274
:1014B0000F931F93CF93DF93282FC0E0D0E0482EE7
:1014C0005524D201AC51BC4FFE01EC5CFB4F808136
:1014D000821709F056C08C9190E095958795959567
:1014E0008795823009F04DC00E943A203B014C01A3
:1014F0006E01CC0CDD1CCC0CDD1C88E994E0C80E20
:10150000D91EF60160817181828193810E94E41F5E
:101510007C01F60160817181828193810E94EA1FC2
:101520005C01440C551C440C551C84EF93E0480EA0
:10153000591E0027F7FC0095102FC801B7012CE3B6
:1015400030E040E050E00E943B3D7B018C01CC2428
:10155000B7FCC094DC2CC601B50120E13EE040E0C0
:1015600050E00E943B3DE60EF71E081F191FE60CD7
:10157000F71C081D191DF201E082F182028313831A
:1015800005C02196C431D10509F09ECFDF91CF91DE
:101590001F910F91FF90EF90DF90CF90BF90AF9091
:1015A0009F908F907F906F905F904F9008956F9273
:1015B0007F928F929F92AF92BF92CF92DF92EF92E3
:1015C000FF920F931F93CF93DF93962EA72EB82EE3
:1015D000C92E882477246624DD24C9EFDFEF692D26
:1015E0007A2D8B2D9C2D23E030E040E050E00E94CE
:1015F0008D3D7B018C01692D7A2D8B2D9C2D23E057
:1016000030E040E050E00E948D3D922EA32EB42E9B
:10161000C52EDD2039F4E114F1040105110511F4A2
:10162000882483948C2F8B5F853038F4E114F10487
:101630000105110511F46C2E609486E08D1578F487
:1016400081E0E816F1040105110549F40C2E04C0EF
:10165000EE0CFF1C001F111F0A94D2F77E28D394B2
:1016600021968CE0D81609F0BACFC4EDD3E010E093
:101670009881892F8F71871581F49295969597702F
:10168000961559F4C05ED0408882C052DF4F81E089
:10169000881619F4812F0E944C0A1F5F2196103181
:1016A00039F7DF91CF911F910F91FF90EF90DF906D
:1016B000CF90BF90AF909F908F907F906F90089544
:1016C000EF92FF920F931F93CF93DF93EC011816C5
:1016D0001906E4F40E943A207B018C01BE018827A0
:1016E00077FD8095982F20E831E541E050E00E9499
:1016F0003B3DE60EF71E081F191FE0920E06F09202
:101700000F06009310061093110608C010920E06E3
:1017100010920F061092100610921106DF91CF91D1
:101720001F910F91FF90EF900895EF92FF920F930A
:101730001F930E943A207B018C01609312067093E4
:101740001306809314069093150620E831E541E0D6
:1017500050E00E948D3D2D5F3F4F4F4F5F4FCA01BC
:10176000B90127E030E040E050E00E948D3D7093E9
:10177000170660931606C801B7010E94EA1F9093EE
:1017800019068093180660911206709113068091D5
:101790001406909115060E94E41F90931B068093F7
:1017A0001A061F910F91FF90EF900895CF92DF924C
:1017B000EF92FF920F931F938C016B0187E061E022
:1017C0000E94063B4EE5E42E41E0F42E0E9DC00142
:1017D0000F9D900D1E9D900D11240E94823A87E06E
:1017E00060E00E94063BCE9CC001CF9C900DDE9C29
:1017F000900D11240E94823A1F910F91FF90EF905B
:10180000DF90CF900895CF92DF92EF92FF921F93D7
:10181000CF93DF936B017C0110E025C0D701C60197
:101820000C2E04C0B695A795979587950A94D2F784
:1018300080FF05C083E090E061E070E004C081E0DB
:1018400090E063E070E00E94D60B21978FEFCF3FCE
:10185000D80721F781E090E06FE170E00E94D60B9D
:101860001F5F1A3019F0C7E1D0E0D8CFDF91CF91D8
:101870001F91FF90EF90DF90CF900895FF920F930C
:101880001F93F62E082F10E00C501D4FF8016083B7
:101890000E942F3500511F4FF801808190E09595EF
:1018A0008795959587957097833089F4E081F0E06E
:1018B000EF71F070EE0FFF1FEE0FFF1FE851FD4FAD
:1018C00060817181828193810E94030C0DC06081CF
:1018D000462F4295469547704F5B8CE196E06F71BD
:1018E00070E02F2D0E9401390E9425351F910F9124
:1018F000FF9008952F923F924F925F927F928F9226
:101900009F92AF92BF92CF92DF92EF92FF920F938E
:101910001F93CF93DF930E94950B20911206309175
:101920001306409114065091150680910E06909171
:101930000F06A0911006B0911106281739074A0723
:101940005B0740F010920E0610920F0610921006E0
:101950001092110618E4212E14E0312EB8E94B2E16
:10196000B4E05B2E88249924F401EC5CFB4F70807A
:1019700021E1721609F4E9C0C72DD0E0FE01EC5157
:10198000FC4FE0812E2F2695269580910E06909192
:101990000F06A0911006B09111060097A105B105A0
:1019A00019F0213009F0D1C0E370E13031F1E130BC
:1019B00020F0E23009F0C9C035C0223009F0C5C0BE
:1019C000FE01EE0FFF1FEE0FFF1FEC50FC4F2091AA
:1019D000120630911306409114065091150680812D
:1019E0009181A281B381281739074A075B0708F460
:1019F000ACC0CC50DD4F888111C0082D882D672DDB
:101A000041E00E944B09813021F4872D61E00E9462
:101A10003E0C802F672D40E00E944B09813009F079
:101A200094C059C080911806909119064CE350E07B
:101A3000849F5001859FB00C949FB00C112480911D
:101A40001A0690911B06A80EB91EF401EC50FD4F2A
:101A50008081882309F444C08E01000F111F000FFC
:101A6000111F0C501C4FF80160817181828193819C
:101A70000E94EA1F6C01F80160817181828193816B
:101A80000E94E41F8C01F201608171818281938147
:101A90000E94EA1F7C01F201608171818281938141
:101AA0000E94E41F080F191F4CE350E0C49E9001F0
:101AB000C59E300DD49E300D1124200F311FE49EA1
:101AC000C001E59E900DF49E900D1124820F931F8E
:101AD0008A159B05D4F5872D60E00E943E0C35C029
:101AE000F10160817181828193810E94EA1F8C01E2
:101AF000F10160817181828193810E94E41F2CE356
:101B000030E0029FB001039F700D129F700D1124F1
:101B1000680F791FC5010E947A3D892BB1F4872D8A
:101B200061E00E943E0CCC0FDD1FCC0FDD1FCC50BE
:101B3000DC4F8091120690911306A0911406B0918B
:101B4000150688839983AA83BB830894811C911C02
:101B500044E050E0240E351E440E551E54E1851617
:101B6000910409F001CFDF91CF911F910F91FF9068
:101B7000EF90DF90CF90BF90AF909F908F907F902D
:101B80005F904F903F902F900895CF92DF92EF9209
:101B9000FF920F931F93DF93CF9300D00F92CDB797
:101BA000DEB7DE011196E0E0F1E083E001900D92F6
:101BB0008150E1F78091FF058983809100068A8337
:101BC0006E010894C11CD11CC6010E94800720E14F
:101BD0003EE040E050E00E943B3D7B018C01809163
:101BE00002068983809103068A83C6010E948007CA
:101BF0002CE330E040E050E00E943B3D9B01AC0113
:101C00002E0D3F1D401F511FB901CA010F900F90AB
:101C10000F90CF91DF911F910F91FF90EF90DF9088
:101C2000CF900895CF93DF93EC016115710519F4FE
:101C300020E030E010C0DB010D900020E9F71197A3
:101C4000A61BB70BEA85FB850280F381E02D0A967F
:101C5000AD0109959C01C901DF91CF9108952F92A3
:101C60003F924F925F926F927F928F929F92AF922C
:101C7000BF92CF92DF92EF92FF920F931F93DF9369
:101C8000CF9300D00F92CDB7DEB72B015A01690177
:101C900038014701FB01E080F180CA0160E070E09B
:101CA000A9010E94B407C80160E070E0A4010E948D
:101CB000B407F7018081882319F424E030E07EC066
:101CC0001E010894211C311CF70161918F016632BD
:101CD00009F494C0673234F4662309F490C0653285
:101CE00009F507C06B3219F06D33E1F47EC060E294
:101CF00019C080818983882309F480C07801089401
:101D0000E11CF11C81818A83882309F478C0870152
:101D10000F5F1F4F1B82C10160E070E040E150E0A7
:101D20000E946406F2E0CF16D10434F0F50161930D
:101D30005F010894C108D1087801C6CF870104C0AB
:101D40006E010894C11CD11CF80161917F016632BB
:101D500009F450C0673234F4662309F44CC065328C
:101D6000E9F404C06B32D1F460E218C08081898349
:101D7000882309F43FC087010F5F1F4F81818A8349
:101D80008823C9F178010894E11CF11C1B82C6016B
:101D900060E070E040E150E00E946406F2E08F16DF
:101DA000910464F2F30161933F0108948108910862
:101DB000C5CF21E030E0F20111830083C9010F900B
:101DC0000F900F90CF91DF911F910F91FF90EF90A7
:101DD000DF90CF90BF90AF909F908F907F906F904B
:101DE0005F904F903F902F9008958081882309F055
:101DF000A7CFDFCF870123E030E0DDCF7801870177
:101E0000D8CF0F931F938C01FC0111AE065F1F4FBB
:101E1000C8010E94302BC8010E948B2B1F910F918B
:101E200008958F929F92AF92BF92CF92DF92EF92DE
:101E3000FF920F931F93CF93DF938C019AE0A92E0B
:101E4000B12CA00EB11EE0919902F0919A02C50149
:101E500009958823F1F1D801D996EC91EE23E1F5AB
:101E60000E94F5396B017C0188EE93E0A0E0B0E0C0
:101E7000C80ED91EEA1EFB1E8FE6882E912C800EFE
:101E8000911E22C0D4018C91882359F0F80182ADB3
:101E900093AD0097F1F00197D801DB969C938E9358
:101EA000DA97C5010E94F72BEC01BFEF8F3F9B072C
:101EB000F9F40E94F539C616D706E806F90620F4AB
:101EC000C8010E94010F14C0C5010E94672B88231E
:101ED000C9F6CFEFDFEF0CC0E150D801D996EC93F3
:101EE000FF27E7FDF095E00FF11F818DC82FD0E0AF
:101EF000CE01DF91CF911F910F91FF90EF90DF9076
:101F0000CF90BF90AF909F908F9008953F924F9247
:101F10005F926F927F928F929F92AF92BF92CF9279
:101F2000DF92EF92FF920F931F93DF93CF9300D036
:101F30000F92CDB7DEB73C014B017A015901CB01BD
:101F400060E070E00E94B407C50160E070E0A801A5
:101F50000E94B4070894E108F10868010894C108D8
:101F6000D10823E0322E2E010894411C511C45C09B
:101F70008B32910519F480E290E02CC08D339105ED
:101F800019F4EE24FF2439C08632910511F481E062
:101F90003DC085329105F1F4C3010E94110F8C01FF
:101FA000C3010E94110F2FEF0F3F120771F1EFEFE6
:101FB0008F3F9E0751F1F201232D11922A95E9F7E7
:101FC00009838A83C20160E070E040E150E00E9432
:101FD0006406CB011E141F043CF4F40181934F01ED
:101FE0000894E108F10809C01C141D0434F4F5013B
:101FF00081935F010894C108D108C3010E94110FA9
:10200000FFEF8F3F9F0709F0B3CF80E00F900F9055
:102010000F90CF91DF911F910F91FF90EF90DF9084
:10202000CF90BF90AF909F908F907F906F905F9078
:102030004F903F900895EF92FF920F931F93CF938D
:10204000DF937C018B01EA01CB0160E070E00E942C
:10205000B407C7010E94110F80329105D1F3893076
:102060009105B9F32197C230D1053CF0F801819375
:102070008F012197C7010E94110F8D30910599F7AB
:10208000F70181ADE82FFF27E7FDF095EE0DFF1D6D
:102090009DE0918F8F5FF70181AF803211F48FE166
:1020A00081AFDF91CF911F910F91FF90EF90089535
:1020B000FF920F931F93CF93DF93EC018B01FB01F2
:1020C00011821082CE010E94110FAC018032910565
:1020D000C9F389309105B1F38D32910511F0FF24D8
:1020E00006C0CE010E94110FAC01FF24F39420E042
:1020F00018C0F801808191819C0173E0220F331F89
:102100007A95E1F7880F991F280F391F2053304027
:10211000240F351F31832083CE010E94110FAC01A3
:1021200021E0CA01C0970A9720F3FFEF4F3F5F07F6
:1021300071F089ADE82FFF27E7FDF095EC0FFD1F4B
:10214000418F8F5F89AF803211F48FE189AFFF201B
:1021500041F0F80180819181909581959F4F918305
:102160008083822FDF91CF911F910F91FF9008956F
:10217000EF92FF920F931F93CF93DF938C017B011C
:10218000EB0141C0C8010E94110F9C018991992760
:1021900087FD909528173907B1F18FEF2F3F38074A
:1021A00059F1F80181ADE82FFF27E7FDF095E00F29
:1021B000F11F218F8F5FF80181AF8032E9F48FE149
:1021C00081AF1AC08A912196282F332727FD309599
:1021D000FFEF2F3F3F0789F0F80181ADE82FFF2780
:1021E000E7FDF095E00FF11F218F8F5FF80181AFC0
:1021F000803219F491AF01C09FE12197CE15DF0520
:1022000009F780E005C08881882309F0BBCF81E011
:10221000DF91CF911F910F91FF90EF900895EF9272
:10222000FF920F931F93CF93DF93EC011CAEECE36F
:10223000EE2EF12CE80EF91E8C01065C1F4FCE012C
:1022400063E071E00E94B810882329F0CE01B80144
:102250000E945810F4CFCE0163E171E00E94B810E3
:10226000882339F0CE01B70143E350E00E941B10F0
:10227000E6CFCE0162E271E00E94B810882329F017
:10228000C159DF4F81E0888306C0CE010E94110F43
:102290008F5F9F4FA1F6DF91CF911F910F91FF901C
:1022A000EF900895CF92DF92EF92FF920F931F93DA
:1022B000CF93DF938C01EB016A017901F9018081F1
:1022C000918101979183808319821882C80167E206
:1022D00071E00E94B810882319F081E090E031C0CD
:1022E000C8016CE271E00E94B810882319F082E006
:1022F00090E027C0C80162E371E00E94B810882313
:1023000019F083E090E01DC0C80168E371E00E940D
:10231000B810882319F084E090E013C0C8016DE381
:1023200071E00E94B810882319F085E090E009C0A0
:10233000C80165E471E00E94B810882339F186E095
:1023400090E09983888318C020323105E9F02A3063
:102350003105D1F02D303105B9F0F701808191813F
:10236000181619061CF4F60121936F01F7018081FC
:102370009181019791838083C8010E94110F9C0174
:10238000FFEF8F3F9F0701F7F6011082DF91CF919A
:102390001F910F91FF90EF90DF90CF900895EF92F3
:1023A000FF920F931F93DF93CF93CDB7DEB727979D
:1023B0000FB6F894DEBF0FBECDBF8C017B01DE01EE
:1023C0001196ECE4F1E087E001900D928150E1F785
:1023D000C801CC96BE016F5F7F4F46E050E00E947F
:1023E000D607009711F080E00BC00E5B1F4FC701AE
:1023F000B8010E94C6079C0180E0232B09F481E00C
:1024000027960FB6F894DEBF0FBECDBFCF91DF91F8
:102410001F910F91FF90EF9008954F925F926F92EE
:102420007F928F929F92AF92BF92CF92DF92EF9264
:10243000FF920F931F93CF93DF93EC013B01DA01DF
:10244000522E8C91882361F08F3209F07CC06A0192
:102450000894C11CD11C11968C911197882359F4B2
:10246000CE58DF4FE881F981C257D040CE01B30189
:1024700043E551E05BC08F3351F4CE58DF4F1296E5
:10248000E881F981C257D040CE01AD014FC0C601ED
:102490006FE370E00E94BB077C01009751F4D60106
:1024A0000D900020E9F78D01015010400C191D0915
:1024B00003C08C010C191D09CC56DF4F4880C4594C
:1024C000D040B4E7AB2EB12CAC0EBD1E88249924AD
:1024D00038C0F50160817181DB01FD0101900020B0
:1024E000E9F73197EA1BFB0B0E171F0719F5C60119
:1024F000A8010E94D6070097E9F4F401EE0FFF1F30
:10250000EE0FFF1FEC0FFD1FEA58FF4F80E090E039
:10251000EF2811F081E090E0080F191FC00ED11EC6
:102520000190F081E02DCE01B301A601252D099582
:1025300081E00AC00894811C911C84E090E0A80E00
:10254000B91E841434F280E0DF91CF911F910F9176
:10255000FF90EF90DF90CF90BF90AF909F908F90C3
:102560007F906F905F904F9008950A9664E571E0B8
:1025700042E050E00E94212C0895CF92DF92EF922A
:10258000FF920F931F93DF93CF93CDB7DEB7A09742
:102590000FB6F894DEBF0FBECDBF8B012AE0C22E6E
:1025A000D12CC80ED91E40E050E07E010894E11CF9
:1025B000F11C0BC04032510541F4C601B70140E2A5
:1025C00050E00E94212C40E050E0F8010F5F1F4FC7
:1025D0008491F701E40FF51F80834F5F5F4F8823DD
:1025E00049F74230510530F041505040C601B70123
:1025F0000E94212CA0960FB6F894DEBF0FBECDBF6F
:10260000CF91DF911F910F91FF90EF90DF90CF90CE
:1026100008950F931F930BE515E0C80167E770E07D
:102620000E94BD12C80163EA70E00E94BD12C80199
:102630006CEA70E00E94BD121F910F9108951F93E4
:10264000182F813029F48BE595E06BE872E004C027
:102650008BE595E06BE772E00E94BD128BE595E09B
:1026600064E771E00E94BD128BE595E064E971E0DA
:102670000E94BD128BE595E066EA71E00E94BD12F2
:10268000113029F48BE595E062EB71E004C08BE535
:1026900095E061E172E00E94BD121F9108959F9242
:1026A000AF92BF92CF92DF92EF92FF920F931F9360
:1026B000CF93DF93F82E062F8BE595E060EE70E068
:1026C0000E94BD128BE595E06CE972E00E94BD129C
:1026D0008F2D602F0E946608BC018BE595E00E945B
:1026E000F83C8BE595E06CEA70E00E94BD1283E651
:1026F000F81639F095E6F91651F0E1E6FE1649F4C0
:1027000003C0E0E2EE2E05C075E0E72E02C061E1F5
:10271000E62E10E0C1E0D0E0802F90E054EDC52E11
:1027200053E0D52EC80ED91E44E3A42E44E0B42EA7
:10273000A80EB91E3DE0932E7DC08BE595E06BEAB7
:1027400072E00E94BD12F3E6FF1639F085E6F81636
:1027500071F091E6F91669F404C0F60100810F7179
:1027600008C0F601008102950695077002C0F501C8
:102770000081011731F48BE595E066EB72E00E9471
:10278000BD128BE595E060EC72E00E94BD128BE516
:1027900095E0612F4AE050E00E94933C8BE595E084
:1027A0006CEA70E00E94BD12F3E6FF1671F085E658
:1027B000F81699F091E6F916A9F5FE01E05C6E2F86
:1027C0008BE595E00E94FC3B2DC08BE595E0612FE9
:1027D0004AE050E00E94933C25C0103139F48BE56B
:1027E00095E06DED72E00E94BD121CC0199DB00114
:1027F00011246C5F7C4F8BE595E00E94F83C8BE5E3
:1028000095E067E571E00E94F83C8BE595E0BE013C
:102810004AE050E00E94E53C8BE595E06AE571E016
:102820000E94F83C8BE595E069EC72E00E94BD12D5
:102830001F5F21961E1508F480CF8BE595E063EDB0
:1028400072E00E94BD128BE595E067EE70E00E9499
:10285000BD12DF91CF911F910F91FF90EF90DF900C
:10286000CF90BF90AF909F900895CF92DF92EF925C
:10287000FF920F931F93CF93DF93F82E062F8DE6D1
:10288000F81619F0A3E0EA2E02C0F4E0EF2E8F2D27
:10289000602F0E9466086C018BE595E060EE70E0A9
:1028A0000E94BD1210E0C02FD0E0CC51DC4F8BE570
:1028B00095E065EE72E00E94BD128BE595E0B601F1
:1028C0000E94F83C8BE595E063E073E00E94BD1246
:1028D0008BE595E0612F4AE050E00E94933C80E751
:1028E000F81619F48881837003C0888186958695CF
:1028F000811729F48BE595E06DE073E004C08BE56A
:1029000095E069E173E00E94BD121F5F1E1578F229
:102910008BE595E067EE70E00E94BD12DF91CF91EC
:102920001F910F91FF90EF90DF90CF9008959F92AD
:10293000AF92BF92CF92DF92EF92FF920F931F93CD
:10294000CF93DF93982E8BE595E06FE673E00E94BE
:10295000BD12C4EED3E040E1C42ED12CCC0EDD1E5E
:1029600000E010E03DE0A32EB12CE02E9881892FED
:102970008370813019F4FF24F3940CC0892F90E008
:102980009595879595958795882319F0B2E0FB2E4C
:1029900001C0FF24C05FD0408881C051DF4F81302B
:1029A00029F48BE595E069E573E004C08BE595E0DB
:1029B00063E473E00E94BD12FF2029F08BE595E0EF
:1029C0006CE373E004C08BE595E06DE173E00E9479
:1029D000BD129920D1F08BE595E064EA73E00E9486
:1029E000BD128BE595E06FE973E00E94BD128BE5A7
:1029F00095E06E2D4AE050E00E94933C8BE595E017
:102A00006DE773E00E94BD1206C08BE595E06CE5B2
:102A100071E00E94F83C0A9DB0010B9D700D1A9D5B
:102A2000700D11246C5F7C4F8BE595E00E94F83CA3
:102A3000FF2009F450C08BE595E06FE173E00E9440
:102A4000BD128BE595E069E273E00E94BD1281E062
:102A5000F81689F58BE595E064EA73E00E94BD12F3
:102A60008BE595E06AE973E00E94BD128BE595E085
:102A70006E2D4AE050E00E94933C8BE595E06DE7B7
:102A800073E00E94BD12F601408151816281738121
:102A9000411551056105710539F08BE595E02AE096
:102AA00030E00E94843C17C08BE595E067E273E05C
:102AB0000E94BD1210C08BE595E06EE30E94FC3BC6
:102AC000E881E695E695F0E0E15AFD4F8BE595E06B
:102AD00060810E94FC3B8BE595E06FE173E00E9412
:102AE000BD120F5F1F4F00FD0CC08BE595E06FE13D
:102AF00073E00E94BD128BE595E06FE673E00E94E3
:102B0000BD12219684E090E0C80ED91E0031110557
:102B100009F02BCF8BE595E06FE173E00E94BD12C9
:102B2000DF91CF911F910F91FF90EF90DF90CF90A9
:102B3000BF90AF909F900895DF92EF92FF920F9316
:102B40001F93CF93DF93082FD62EE82FF0E0662354
:102B500019F4E450FB4F02C0E851FB4F10818BE5A4
:102B600095E060EE70E00E94BD12C0E0D0E0E12E82
:102B7000FF248BE595E06EEC78E00E94BD12DD202D
:102B800011F484E601C084E4602F0E946608BC0151
:102B90008BE595E00E94F83C8BE595E0BE014AE0AC
:102BA00050E00E94E53C8BE595E063E073E00E9415
:102BB000BD128BE595E0BE014AE050E00E94E53C85
:102BC000C7010C2E02C0959587950A94E2F780FF05
:102BD00005C08BE595E06DE073E004C08BE595E002
:102BE00069E173E00E94BD122196C730D10509F654
:102BF0008BE595E067EE70E00E94BD12DF91CF910A
:102C00001F910F91FF90EF90DF900895EF92FF9248
:102C10000F931F93CF93DF93082F162FEA017901AB
:102C20008BE595E068E279E00E94BD12002329F06F
:102C30008BE595E060E079E004C08BE595E06BEF13
:102C400078E00E94BD128BE595E06BE179E00E948F
:102C5000BD128BE595E0612F4AE050E00E94933C65
:102C60008BE595E062E179E00E94BD128BE595E08D
:102C7000612F4AE050E00E94933C8BE595E069E0CB
:102C800079E00E94BD128BE595E0BE010E94F83C00
:102C90008BE595E06DE173E00E94BD12002389F49D
:102CA0008BE595E062EF78E00E94BD128BE595E040
:102CB000B7010E94F83C8BE595E06DE173E00E945E
:102CC000BD128BE595E06FEE78E00E94BD12DF91BA
:102CD000CF911F910F91FF90EF9008950F931F9345
:102CE000CF93DF93082F162F8BE595E060EE70E011
:102CF0000E94BD12C02FD0E0112361F484E7602F41
:102D00000E9466088C01CC0FDD1FCC0FDD1FC8565A
:102D1000DB4F0BC084E5602F0E9466088C01CC0F4E
:102D2000DD1FCC0FDD1FC85BDB4F688179818A8195
:102D30009B810E94090A9C0180E065E0A8010E9435
:102D400006168BE595E067EE70E00E94BD12DF91FC
:102D5000CF911F910F910895EF92FF920F931F93C0
:102D6000CF93DF93F82EE92E8B01EA0160EB79E037
:102D70000E94BD128F2D9E2DB8010E94F83C8F2D10
:102D80009E2D0E94B512209729F08F2D9E2DBE01F9
:102D90000E94F83C8F2D9E2D0E94B512DF91CF919D
:102DA0001F910F91FF90EF9008956CE57AE00E94DB
:102DB000BD1208950F931F93CF93DF93EC018B0106
:102DC0006DE671E040E050E00E94AC160230110563
:102DD00029F0CE016FED7AE00E94BD12DF91CF9114
:102DE0001F910F9108956CEF7AE00E94BD12089533
:102DF0000E94F31608951F93CF93DF93182F82300C
:102E000039F0833051F48BE595E00E94D5160DC062
:102E10008BE595E00E94F31608C08BE595E068E726
:102E200071E040E050E00E94AC168BE595E069E966
:102E300078E00E94BD128BE595E064E977E00E949E
:102E4000BD128BE595E06CE576E00E94BD128BE546
:102E500095E067E177E00E94BD128BE595E060E0C8
:102E600077E00E94BD128BE595E067E976E00E946D
:102E7000BD128BE595E062E676E00E94BD128BE51F
:102E800095E06EE874E00E94BD128BE595E067E185
:102E900077E00E94BD128BE595E062EC75E00E9440
:102EA000BD128BE595E06DE675E00E94BD128BE5E5
:102EB00095E069E276E00E94BD128BE595E062E460
:102EC00076E00E94BD128BE595E06BE376E00E9410
:102ED000BD128BE595E06EE176E00E94BD128BE5B8
:102EE00095E062E476E00E94BD128BE595E064E334
:102EF00076E00E94BD128BE595E063ED74E00E94E0
:102F0000BD128BE595E063E176E00E94BD128BE592
:102F100095E06BE878E00E94BD128BE595E06CE3EC
:102F200074E00E94BD128BE595E065EC74E00E94B0
:102F3000BD128BE595E063EA70E00E94BD128BE55F
:102F400095E063E974E00E94BD1260911606660F79
:102F5000C62FD0E0CC59DD4F8BE595E068810E940B
:102F6000FC3B8BE595E069810E94FC3B8BE595E09D
:102F700061E971E00E94F83C0E943A200E94090A2F
:102F8000BC018BE595E00E94F83C8BE595E06BEB8E
:102F900074E00E94BD128BE595E065EC74E00E9440
:102FA000BD128BE595E063EA70E00E94BD128BE5EF
:102FB00095E06CE974E00E94BD1280910E0690913C
:102FC0000F06A0911006B09111060097A105B1055A
:102FD00029F08BE595E062EB74E004C08BE595E0A9
:102FE0006BEA74E00E94BD128BE595E06BEB74E038
:102FF0000E94BD128BE595E06EEF73E00E94BD125A
:103000008BE595E065E878E00E94BD128BE595E0E0
:1030100065EA74E00E94BD12123039F0133051F4A9
:103020008BE595E06DED73E010C08BE595E06FEEFC
:1030300073E00BC0112329F48BE595E060ED73E09C
:1030400004C08BE595E067ED73E00E94BD128BE54F
:1030500095E068E874E00E94BD12DF91CF911F9166
:1030600008953F924F925F926F927F928F929F92BC
:10307000AF92BF92CF92DF92EF92FF920F931F9386
:10308000DF93CF9300D00F92CDB7DEB75C016330F2
:10309000710509F058C10AC0E82FF0E0DF01A25D18
:1030A000B94F1C92EE5BF94F10828F5F8431A0F311
:1030B0003FEF432E35E0532E3E010894611C711CF6
:1030C00021E0C22ED12CE12CF12C9DE0892E80E252
:1030D000382EC50160EF75E04FE050E02FEF35E08E
:1030E0000FE010E00E94860F982E8091F1058983F1
:1030F0008091F2058A83C3010E946207082F109114
:10310000F0051E36A1F18FEF95E00E9480071D3675
:1031100009F466C01E36B4F4113609F44EC01236F6
:103120003CF4143409F485C0143509F0ADC067C00F
:10313000143609F483C0153609F45BC0133609F060
:10314000A3C034C0133709F493C0143734F41E36C7
:1031500071F0103709F098C03CC0163709F484C0EC
:103160001A3709F47CC0143709F08EC053C0089D8B
:10317000D0011124AC5FBC4F20E030E0F20101909F
:103180000020E9F73197EF5FF5402E173F0730F445
:10319000F901E150FA4F80818C9301C03C922F5F7E
:1031A0003F4F11962C30310549F76EC0E02FF0E00B
:1031B000EC52FC4F8081807E09C0E02FF0E0EC52A1
:1031C000FC4F80818F716295660F607E860F8083D1
:1031D0005BC0E02FF0E0EC51FC4F80818C7FF6CF9C
:1031E000E02FF0E0EC51FC4F80818370660F660F9A
:1031F000EDCFE02FF0E0EC5CFB4F608345C00E9418
:10320000C50DE02FF0E0EE0FFF1FEE0FFF1FE85B94
:10321000FB4F0AC00E94C50DE02FF0E0EE0FFF1F2C
:10322000EE0FFF1FE856FB4F608371838283938309
:103230002BC0E02FF0E0E25DF94F04C0E02FF0E09A
:10324000EE5BF94FD701C60104C0880F991FAA1F72
:10325000BB1F6A95D2F72081282B208315C060936D
:10326000E7020E94820810C0CB010E94600B0CC0D4
:10327000E02FF0E0EE0FFF1FEE0FFF1FE851FD4FB4
:103280006083718382839383992009F022CFA8EE13
:10329000B4E020E030E0F901E25DF94F80818C93E9
:1032A000F901EE5BF94F808154968C9354972F5F10
:1032B0003F4F11962431310571F781E00E94FB16D2
:1032C00060E070E0A0EDEA2EA2E0FA2E8B010F5F25
:1032D0001F4FF70141917F018EE497E00E9424394E
:1032E0000432110511F0B801F1CF64E270E0F4EF9F
:1032F000EF2EF2E0FF2E8B010F5F1F4FF701419180
:103300007F018EE497E00E942439F1E004361F0724
:1033100011F0B801F0CF64E671E0E4E3EE2EE4E0F2
:10332000FE2E8B010F5F1F4FF70141917F018EE44D
:1033300097E00E942439F2E000341F0711F0B80131
:10334000F0CF0E9409130F900F900F90CF91DF9153
:103350001F910F91FF90EF90DF90CF90BF90AF90B3
:103360009F908F907F906F905F904F903F900895C7
:103370000F931F938C0182E00E94FB16C80168E640
:1033800070E00E94BD121F910F910895AF92BF92FD
:10339000CF92DF92EF92FF920F931F93DF93CF9321
:1033A000CDB7DEB72A970FB6F894DEBF0FBECDBFFC
:1033B000D82EC92E8B0165E372E00E94CF118823BD
:1033C00009F434C181E00E94FB160230110509F4B2
:1033D00030C18D2D9C2D6FEA70E00E94BD128D2DA5
:1033E0009C2D6FEB70E00E94BD128D2D9C2D69EC21
:1033F00070E00E94BD1281E00E941F1300E010E007
:103400005DE0E52EF12C8D2D9C2D6AED70E00E9483
:10341000BD128D2D9C2D60EE70E00E94BD128EE6D7
:10342000602F0E946608AC010E9D90010F9D300D2B
:103430001E9D300D11242C5F3C4F80E06CE00E94FB
:1034400006168D2D9C2D67EE70E00E94BD1283E65E
:10345000602F0E944F1381E6602F0E944F1380E778
:10346000602F0E9435148DE6602F0E9435148D2D3B
:103470009C2D6DEE70E00E94BD120F5F1F4F00315A
:10348000110509F68D2D9C2D64EF70E00E94BD1290
:1034900082E00E941F1310E08D2D9C2D6AED70E0DC
:1034A0000E94BD1285E6612F0E944F13812F61E0BB
:1034B0000E946E16812F61E00E949C15812F60E0B2
:1034C0000E946E16812F60E00E949C158D2D9C2D10
:1034D0006DEE70E00E94BD121F5F1431E9F68D2D74
:1034E0009C2D64EF70E00E94BD128D2D9C2D68E331
:1034F00071E00E94BD1248EEE42E42E0F42E00E09E
:1035000010E05E010894A11CB11C8D2D9C2D67E478
:1035100071E00E94BD128D2D9C2DB8014AE050E053
:103520000E94E53CF70161917191819191917F0138
:10353000A5012AE030E00E94050883E7602F0E9481
:103540006608AC0180E068E095010E9406168D2DAA
:103550009C2D62E371E00E94BD120F5F1F4F03308C
:10356000110599F68D2D9C2D63E671E00E94BD1228
:10357000E0900E06F0900F060091100610911106D3
:10358000E114F1040105110519F480E090E00FC089
:103590000E943A20E61AF70A080B190BC801B70176
:1035A00020E831E541E050E00E948D3DC9018E01E7
:1035B0000F5F1F4FB8014AE050E00E94E40780E02F
:1035C00063E044E951E098010E9406168D2D9C2D80
:1035D00062E371E00E94BD128D2D9C2D61E571E0CA
:1035E0000E94BD128091E702992787FD9095B8014E
:1035F0004AE050E00E94E40780E063E048E951E0DF
:1036000098010E9406168D2D9C2D62E371E00E94A8
:10361000BD128D2D9C2D67E071E00E94BD128D2D95
:103620009C2D68E670E00E94BD1203C083E00E94FA
:10363000FB162A960FB6F894DEBF0FBECDBFCF9112
:10364000DF911F910F91FF90EF90DF90CF90BF908F
:10365000AF900895AF92BF92CF92DF92EF92FF9218
:103660000F931F93DF93CF9300D0CDB7DEB76C01DC
:103670008B015A8349836AE472E00E94CF11882348
:1036800041F4C60165E372E00E94CF11882309F47A
:1036900088C080E00E94FB160230110509F48AC040
:1036A000E981FA818081882309F066C071C0C60172
:1036B000B50140EF55E02FE030E00FEF15E0EFE00F
:1036C000EE2EF12C0E942F0E049709F459C0C80168
:1036D0000E9462078C0180EF95E06CE971E00E9426
:1036E000C607009779F4F02E60E0F801EC50FD4F2A
:1036F0008081882309F461E08F2D0E943E0C8F2D7C
:103700000E944C0A80EF95E060EA71E00E94C607D3
:10371000009719F4C8010E94600B80EF95E064EAFD
:1037200071E00E94C607009721F40E9482080E945F
:103730000D2080EF95E068EA71E00E94C6070097CF
:10374000F9F4F801EE0FFF1FEE0FFF1FEC50FC4FD6
:1037500080819181A281B3810196A11DB11D8083D9
:103760009183A283B3830497A105B10548F0108229
:1037700011821282138204C05E010894A11CB11C44
:10378000E981FA818081882309F091CF0E94091391
:1037900081E00E949714C60168E670E00E94BD12A5
:1037A00009C0C6010E94D51680E00E94FB1680E089
:1037B0000E9497140F900F90CF91DF911F910F915E
:1037C000FF90EF90DF90CF90BF90AF900895AF92B1
:1037D000BF92CF92DF92EF92FF920F931F93DF93EE
:1037E000CF93CDB7DEB7A0970FB6F894DEBF0FBE6C
:1037F000CDBF7B018A01FAE0CF2ED12CC80ED91E95
:1038000040E050E05E010894A11CB11C18C0403299
:10381000510541F4C601B50140E250E00E94212C5F
:1038200040E050E0F7010894E11CF11CE491D5015F
:10383000A40FB51FEC934F5F5F4F0150104001156F
:10384000110529F74115510531F0C601BE016F5F21
:103850007F4F0E94212CA0960FB6F894DEBF0FBEBA
:10386000CDBFCF91DF911F910F91FF90EF90DF902F
:10387000CF90BF90AF9008950F931F93CF93DF9396
:10388000EC018B016CEA71E049EB51E00E94AC164F
:103890000230110539F0CE016EED7AE041E050E0E2
:1038A0000E94E71BDF91CF911F910F9108958F9296
:1038B0009F92AF92BF92CF92DF92EF92FF920F93BF
:1038C0001F93DF93CF93CDB7DEB72F970FB6F89442
:1038D000DEBF0FBECDBF8C017B014A01DC015796D4
:1038E000EC9157975896FC91DF010D900020E9F775
:1038F0006D010894C108D108CE1ADF0ABC016C5FC3
:103900007F4FCE0103960E94132E8D819E81F80178
:10391000958784878F819885A985BA8586879787BB
:10392000A08BB18B8B859C85AD85BE85828B938B5F
:10393000A48BB58B8F85868BE0919902F0919A02CA
:10394000C8010A960995882309F465C001591F4FDB
:10395000D8011C920F561040F70110821A8219826A
:10396000C801BE016F5F7F4FA70194010E945211F1
:1039700089819A81892BE1F0C8010E940F11C7014A
:103980006BED71E00E94C607009731F469817A817E
:10399000C8010E94DA160CC0C70167EE71E00E94F0
:1039A000C607009729F469817A81C8010E943C1CEE
:1039B000A980BA80A114B104D1F0D80157966D91B5
:1039C0007C915897C701A6010E94D607009779F409
:1039D000A7014C0D5D1D20E0F4018081918197FFCE
:1039E00021E0C801B5010E940D12882389F4F80175
:1039F000E059FF4F69817A8120E0D4018D919C913B
:103A000097FF21E00190F081E02DC801A701099501
:103A1000C8010E94010F2F960FB6F894DEBF0FBEAB
:103A2000CDBFCF91DF911F910F91FF90EF90DF906D
:103A3000CF90BF90AF909F908F900895DF93CF93DA
:103A4000CDB7DEB7E2970FB6F894DEBF0FBECDBF9D
:103A500080E390E09A8389830E947A0C8BE595E05D
:103A6000BE016D5F7F4FAE014F5F5F4F0E94571CDD
:103A7000E2960FB6F894DEBF0FBECDBFCF91DF91B7
:103A800008950A960E94212C08950A960E94182BE8
:103A90000895AF92BF92CF92DF92EF92FF920F9371
:103AA0001F93DF93CF93CDB7DEB768970FB6F89427
:103AB000DEBF0FBECDBF60E070E0E0EDEE2EE2E0D5
:103AC000FE2E8B010F5F1F4F8EE497E00E941D3981
:103AD000F70181937F010432110511F0B801F1CF94
:103AE00064E270E054EFE52E52E0F52E8B010F5F9B
:103AF0001F4F8EE497E00E941D39F70181937F01EB
:103B0000F1E004361F0711F0B801F0CF64E671E070
:103B100044E3E42E44E0F42E8B010F5F1F4F8EE44C
:103B200097E00E941D39F70181937F01F2E0003494
:103B30001F0711F0B801F0CF8091E602813049F4FF
:103B400085E896E060ED72E00E945D2A892BC1F362
:103B50002DC05E010894A11CB11CC50166ED72E088
:103B60000E94C43B37E0C32ED12CCC0EDD1EC60113
:103B700062EE72E00E94C43B8E01035F1F4FC801DA
:103B80006EED72E00E94C43B23E1E22EF12CEC0EBC
:103B9000FD1EC7016AED72E00E94C43B85E896E015
:103BA00060ED72E0A50196010E940C2A80E195E08B
:103BB00068EB72E20E94AC3082E898E00E94C92073
:103BC00060E478E380E090E00E94F01F8FE595E0EC
:103BD0000E948B2E2091EF052830C0F4E22FFF27A2
:103BE000E7FDF095EE0FFF1FEE0FFF1FDF01A15362
:103BF000BA4F84EF91E08D939C93EF52FA4F8AE293
:103C00009BE1918380832F5F2093EF058AE29BE104
:103C10009093CE058093CD0588EB99E19093CC05E8
:103C20008093CB052091EF052830C0F4E22FFF27C9
:103C3000E7FDF095EE0FFF1FEE0FFF1FDF01A15311
:103C4000BA4F8DEF91E08D939C93EF52FA4F86EC33
:103C500099E1918380832F5F2093EF052091EF05F9
:103C60002830C0F4E22FFF27E7FDF095EE0FFF1F8D
:103C7000EE0FFF1FDF01A153BA4F86E092E08D9354
:103C80009C93EF52FA4F81E398E1918380832F5FF9
:103C90002093EF0580E090E063E070E047ED5AE0AC
:103CA0000E94073768960FB6F894DEBF0FBECDBFEF
:103CB000CF91DF911F910F91FF90EF90DF90CF9008
:103CC000BF90AF900895EF92FF920F931F938C01D6
:103CD0007B01FC01138212828FE292E09183808348
:103CE000C8010496BA010E94252DC8010A966FEFFB
:103CF0000E94072BF801F08EE78A11AE13AE12AEC8
:103D000000591F4F88EF96E1F801819391938F013D
:103D1000918380830E5D1F4FF80110821F910F91D8
:103D2000FF90EF9008950F9382E296E060E040E00C
:103D300020E000E00E945A3B88E296E064E843EA13
:103D400024E006E60E945A3B80E195E00E94113093
:103D50008BE595E063E571E040E550E00E94631E6D
:103D60008CE196E067E070E04EEB50E024E030E05C
:103D70000E941A390F9108958F929F92AF92BF922D
:103D8000CF92DF92EF92FF920F931F93CF93DF9327
:103D90007B018C01EA012CE330E040E050E00E941E
:103DA0008D3D6883C801B7012CE330E040E050E06E
:103DB0000E948D3D122F032FF42EE52E622F732FBC
:103DC000842F952F2CE330E040E050E00E948D3DA1
:103DD0006983612F702F8F2D9E2D2CE330E040E002
:103DE00050E00E948D3D122F032FF42EE52E622FFE
:103DF000732F842F952F28E130E040E050E00E949F
:103E00008D3D6A83612F702F8F2D9E2D28E130E02C
:103E100040E050E00E948D3D79018A01C801B70160
:103E20006C5F7F4F8F4F9F4F27E030E040E050E0C6
:103E30000E948D3D6F5F6B8320E0AA24BB24650147
:103E400001C02F5F822E9924F401EE54F84FCF0168
:103E500083709070892B99F4CF0164E670E00E9422
:103E60007A3D892B39F4CF0160E971E00E947A3DF7
:103E7000892B29F48EE691E0A0E0B0E004C08DE645
:103E800091E0A0E0B0E0A80EB91ECA1EDB1EC5017D
:103E9000A0E0B0E0E816F9060A071B0790F62E83AB
:103EA000F401EE54F84F83E0882E912C8E229F224D
:103EB0008114910499F4CF0164E670E00E947A3D88
:103EC000892B39F4CF0160E971E00E947A3D892B9A
:103ED00029F48EE691E0A0E0B0E004C08DE691E028
:103EE000A0E0B0E0A81AB90ACA0ADB0A9801870163
:103EF0000A191B092C093D09CF0164E670E00E94F4
:103F00007A3D7C01CF0160E971E00E947A3DAC010D
:103F1000E3E7F2E060E0613051F48114910449F488
:103F2000E114F10441F44115510529F002C08081EA
:103F300003C08CE101C08DE190E0A0E0B0E0081783
:103F400019072A073B0740F0081B190B2A0B3B0BEC
:103F50006F5F31966C30F9F66F5F6D83802F8F5FE6
:103F60008C83DF91CF911F910F91FF90EF90DF90A5
:103F7000CF90BF90AF909F908F900895EF92FF9257
:103F80000F931F937B018C0180916D0690916E06BB
:103F9000A0916F06B0917006E816F9060A071B0794
:103FA00071F0C801B70142E656E00E94BC1EE092E3
:103FB0006D06F0926E0600936F06109370061F91C7
:103FC0000F91FF90EF9008950E94BE1F80916306AD
:103FD00090E008950E94BE1F8091640690E00895CD
:103FE0006093250270932602809327029093280203
:103FF000209158063091590640915A0650915B061F
:10400000260F371F481F591F20935C0630935D060B
:1040100040935E0650935F06089560935806709330
:10402000590680935A0690935B06209125023091A1
:1040300026024091270250912802260F371F481F61
:10404000591F20935C0630935D0640935E065093A3
:104050005F0682E090E090936106809360060E9484
:10406000F5396093690670936A0680936B069093A6
:104070006C060895EF92FF920F931F931CC02F5F61
:104080003F4F4F4F5F4F2093580630935906409350
:104090005A0650935B0688EE93E0A0E0B0E0E80E8D
:1040A000F91E0A1F1B1FE0926906F0926A06009330
:1040B0006B0610936C060E94F539E0906906F0904B
:1040C0006A0600916B0610916C066E197F09800BD1
:1040D000910B209158063091590640915A06509103
:1040E0005B06685E73408040904048F680915C06B5
:1040F00090915D06A0915E06B0915F062817390782
:104100004A075B07C8F1E0915606F09157063097D1
:1041100099F10995611571058105910519F00E94C4
:104120000D202AC08091250290912602A09127029D
:10413000B0912802209158063091590640915A06B4
:1041400050915B06820F931FA41FB51F80935C06DE
:1041500090935D06A0935E06B0935F0620E030E08A
:104160008091600690916106892B11F021E030E08A
:10417000309361062093600660915806709159064D
:1041800080915A0690915B061F910F91FF90EF90DE
:104190000895909357068093560680915806909103
:1041A0005906A0915A06B0915B0680935C069093E5
:1041B0005D06A0935E06B0935F060E943A200895C4
:1041C0008AE061E00E94063B8AE061E00E94C73A13
:1041D0008CB580618CBD8CB580648CBD8DE061E058
:1041E0000E94C73A8BE061E00E94C73A0895FB0144
:1041F00080E38083842F82958F704F704A3014F44F
:10420000405D01C0495C41833197882311F0482FFC
:10421000F1CF08950F9381E796E060E040E020E061
:1042200000E00E945A3B0F9108950F931F938C0159
:10423000625E7F4F0E94C43BC8011F910F91089599
:104240000F931F938C016A5E7F4F0E94C43BC8018D
:104250001F910F9108950F931F938C016E5E7F4FF6
:104260000E94C43BC8011F910F9108950F931F93A3
:104270008C01625F7F4F0E94C43BC8011F910F9168
:1042800008952F923F924F925F926F927F928F92FA
:104290009F92AF92BF92CF92DF92EF92FF920F93D5
:1042A0001F93DF93CF93CDB7DEB7E8970FB6F8949F
:1042B000DEBF0FBECDBF5C013A014B0129010E9458
:1042C000F5397B018C01F7E4CF2ED12CCA0CDB1C15
:1042D00014C00E94F5396E197F09800B910B661688
:1042E00077068806990618F477247A941AC262E34E
:1042F00070E080E090E00E94293AC6010E94942F6D
:104300001816190634F7C601BE01635F7F4F42E2FB
:1043100050E00E94462F8D85823009F0FEC12CE5C9
:1043200030E0A20EB31EF5018081918124EA3FEFB7
:10433000A20EB31E8334910509F0EFC129893A8991
:104340004B895C89E52EFF2400271127B22FAA276D
:1043500099278827E82AF92A0A2B1B2BB42FA32F89
:10436000922F882780709070B070E82AF92A0A2B63
:104370001B2B232F342F452F552720704070507052
:10438000E22AF32A042B152BF201E082F182028348
:104390001383B501685F7F4FCE01899646E050E0F8
:1043A0000E94A707009799F4F50180819181A2816D
:1043B000B381E816F9060A071B0748F08481958146
:1043C000A681B7818E159F05A007B10728F4C60105
:1043D0000E940E2F7724A5C18D8D9E8DAF8DB8A123
:1043E000F50186879787A08BB18B00E010E0C601AE
:1043F0000E94692F0F5F1F4F0E3C1105C1F79501F9
:104400002E5E3F4F38AF2FABC50146969EAB8DABAE
:10441000F5017E96FCABEBAB8AE1882E912C8A0CE1
:104420009B1C95012A5D3F4F3AAB29ABC5018A968B
:1044300098AB8FA702E2202E312C2A0C3B1C77244C
:1044400018E5412E512C4A0C5B1C5FC1C6010E942D
:10445000692F8333910509F414C1843391058CF4D9
:104460008130910569F18230910524F4892B09F49A
:104470004CC140C18330910551F1069709F03AC112
:1044800042C08A33910509F490C08B3391053CF406
:104490008533910569F0C69709F02CC150C08B3364
:1044A000910509F4B8C08F3F910509F023C12DC1D2
:1044B000C6010E94692FC6010E94692F782E25C16E
:1044C000C6010E94692FC6016FA978AD62C0C601FE
:1044D0000E94692F182FC6016DA97EA944E050E003
:1044E0000E94462FEE24FF24012F10E004501040BC
:1044F00006C0C6010E94692F0894E11CF11CE01659
:10450000F106BCF302C1C6010E94692F182FC60133
:104510006BA97CA944E050E00E94462FEE24FF24C2
:10452000012F10E00450104006C0C6010E94692F00
:104530000894E11CF11CE016F106BCF3E6C0C601CC
:104540000E94692F182FF40180819181A281B3818B
:104550000097A105B105D9F0CE010196B4010E94E2
:10456000C43B2DEC32E038872F83F201208131816A
:104570004281538129873A874B875C878B819C8155
:10458000AD81BE8182179307A407B50759F4C60110
:10459000B40144E050E00E94462FB7C0C6010E941B
:1045A000692F11501123D1F7B0C0C6010E94692FA5
:1045B000C60169A97AA944E050E00E94462FF5019E
:1045C00026A137A140A551A5E52EFF2400271127DC
:1045D000B22FAA2799278827E82AF92A0A2B1B2B0A
:1045E000B42FA32F922F882780709070B070E82A84
:1045F000F92A0A2B1B2B232F342F452F55272070E8
:1046000040705070E22AF32A042B152BE6A2F7A281
:1046100000A711A77AC0C6010E94692FC6016FA525
:1046200078A944E050E00E94462FF50122A533A569
:1046300044A555A5E52EFF2400271127B22FAA2750
:1046400099278827E82AF92A0A2B1B2BB42FA32F96
:10465000922F882780709070B070E82AF92A0A2B70
:104660001B2B232F342F452F55272070407050705F
:10467000E22AF32A042B152BE2A6F3A604A715A71A
:1046800044C0C6010E94692FC601B10144E050E058
:104690000E94462FF50122A133A144A155A1E52E88
:1046A000FF2400271127B22FAA2799278827E82A55
:1046B000F92A0A2B1B2BB42FA32F922F8827807047
:1046C0009070B070E82AF92A0A2B1B2B232F342F65
:1046D000452F5527207040705070E22AF32A042B92
:1046E000152BE2A2F3A204A315A3E6A6F7A600AB3E
:1046F00011AB0BC0C6010E94692F182F04C0C60160
:104700000E94692F11501123D1F7C6010E94F22E89
:10471000181619060CF49ACE01C07724C6010E941F
:104720000E2F872DE8960FB6F894DEBF0FBECDBFD3
:10473000CF91DF911F910F91FF90EF90DF90CF907D
:10474000BF90AF909F908F907F906F905F904F90B1
:104750003F902F9008950E96FC0184E1DF011D9299
:104760008A95E9F708954F925F926F927F928F92A8
:104770009F92AF92BF92CF92DF92EF92FF920F93F0
:104780001F93DF93CF93CDB7DEB7E2970FB6F894C0
:10479000DEBF0FBECDBF6C01462E3A01F3E18F2E76
:1047A000912C8C0E9D1EE0E25E2EF401252D1192BF
:1047B0002A95E9F7CE0107966FEF4FEF2FEF0FEF36
:1047C0000E945A3B77E4A72EB12CAC0CBD1C8DEC9B
:1047D00092E09E878D8789859A85AB85BC858F877A
:1047E000988BA98BBA8BC501BE01635F7F4F43E4F1
:1047F00050E00E9408308F5F9F4F09F4F3C081E0C2
:104800008B8B8C8B86E08D8B1E8AF6012481358103
:1048100046815781E52EFF2400271127B22FAA27B2
:1048200099278827E82AF92A0A2B1B2BB42FA32FB4
:10483000922F882780709070B070E82AF92A0A2B8E
:104840001B2B232F342F452F55272070407050707D
:10485000E22AF32A042B152BEB82FC820D831E83A4
:10486000EF8AF88E098F1A8F7B8E6C8E80E890E02D
:104870009A8389839E8F8D8FC501B4014CE150E0EE
:104880000E94E82FF40111925A94E9F7A8E06A2EE9
:10489000712C6C0C7D1CD401F30186E001900D920B
:1048A0008150E1F78E010D5E1F4FC501B80140E157
:1048B00050E00E94E82F80E2F80111928A95E9F712
:1048C000EE24FF24902E012FC501692D702F40E2A8
:1048D00050E00E94E82F0894E11CF11CF6E0EF166E
:1048E000F10491F793E69B8B82E88C8B83E58D8BAB
:1048F0009E8B85E38F8B91E0988F498E8DE38A8F15
:1049000087E08B8F9C8FDE015D96F30186E001903E
:104910000D928150E1F78CE08BA38CA38E010D5E8C
:104920001F4FCE01859660E172E00E94CF07C6015D
:10493000BE01655D7F4FF60143850E94F720C601E9
:10494000BE01635D7F4FF60144850E94F720C601DA
:10495000BE01615D7F4FF60145850E94F720C501CC
:10496000B8014EE150E00E94E82FF3E04F16F1F459
:1049700082E38B8B94E09C8BF60186858D8B8785FB
:104980008E8B80898F8B8189888F86E3898F9A8F20
:10499000828D8B8F838D8C8F848D8D8F858D8E8F67
:1049A000C501B8014CE050E00E94E82F87E38B8BF3
:1049B00096E09C8B81E08D8B83E08E8B9F8B8FE0CC
:1049C000888F8AE3898F8BE38A8F8FEF8B8FC50166
:1049D000BE016D5E7F4F49E050E00E94E82FC501A7
:1049E0000E940330E2960FB6F894DEBF0FBECDBF33
:1049F000CF91DF911F910F91FF90EF90DF90CF90BB
:104A0000BF90AF909F908F907F906F905F904F90EE
:104A100008952F923F924F925F926F927F928F9262
:104A20009F92AF92BF92CF92DF92EF92FF920F933D
:104A30001F93DF93CF9300D000D0CDB7DEB78C01AA
:104A400061E070E080E090E020ED37E040E050E091
:104A50000E941D3DD80114966C93149715967C9373
:104A6000159716968C93169717969C9317976C9399
:104A700011967C93119712968C93129713969C9390
:104A800077E4472E512C400E511EC2010E949730F0
:104A9000C20164E470E00E94AC30882319F46624FB
:104AA000772422C10E94F5394B015C0166247724EA
:104AB00066E4C62ED12CC00ED11E5EE3252E312C0D
:104AC000200E311E42E0E42EFBC0882309F5F801D8
:104AD00084819581A681B7810196A11DB11D848332
:104AE0009583A683B7830E94F539681979098A09E5
:104AF0009B0928EE33E040E050E00E948D3DC80164
:104B000061E0A9010E94B32381E0D6018C93C2C069
:104B1000843001F5F80184819581A681B7810196E1
:104B2000A11DB11D84839583A683B7830E94F539A7
:104B3000681979098A099B0928EE33E040E050E0C2
:104B40000E948D3DC80163E0A9010E94B323D601F4
:104B5000EC92A0C0813069F5F10140815181628100
:104B60007381C8019E012F5F3F4F0E944121F82EA3
:104B7000F2E08F1709F089C089819A81AB81BC81ED
:104B8000F80184839583A683B7830E94F539681959
:104B900079098A099B0928EE33E040E050E00E9441
:104BA0008D3DC80163E0A9010E94B323D601FC92A8
:104BB00071C0823009F06EC0F10140815181628183
:104BC0007381C8019E012F5F3F4F0E944121F82E43
:104BD000F5E08F1709F053C0E3E0D601EC93F8013C
:104BE00082A193A1A4A1B5A10097A105B10541F4AB
:104BF00084E893E0A0E0B0E082A393A3A4A3B5A3CC
:104C0000F80186A197A1A0A5B1A50097A105B105BE
:104C100061F482A193A1A4A1B5A1B695A79597959A
:104C2000879586A397A3A0A7B1A7F80182A593A50E
:104C3000A4A5B5A50097A105B10561F486A197A12A
:104C4000A0A5B1A5880F991FAA1FBB1F82A793A774
:104C5000A4A7B5A7F80186A197A1A0A5B1A586A78D
:104C600097A7A0ABB1AB82A593A5A4A5B5A582AB30
:104C700093ABA4ABB5ABA1E06A2E712C0BC0F6E0F0
:104C80008F1719F4D6011C9205C0BFEFFB1611F463
:104C9000F6011082F1E06F16710491F00E94F5396F
:104CA000681979098A099B09D801DA962D913D91F5
:104CB0004D915C91DD97261737074807590728F073
:104CC000F6018081833009F000CFC2010E94973045
:104CD000F80184819581A681B7810196A11DB11D3E
:104CE00084839583A683B783C3010F900F900F90A1
:104CF0000F90CF91DF911F910F91FF90EF90DF9078
:104D0000CF90BF90AF909F908F907F906F905F906B
:104D10004F903F902F900895CF92DF92EF92FF92A5
:104D20000F931F93CF93DF93EC01D62EC72E1AA2B9
:104D30001BA21CA21DA21EA21FA218A619A61AA67B
:104D40001BA61CA61DA61EAA1FAA18AE19AE2AAF26
:104D50003BAF4CAF5DAFEE96E882F9820A831B83CE
:104D6000EE978E01085F1F4F86E0F80111928A9539
:104D7000E9F7CE010E94AB23D8012D2D3C2DC901AE
:104D8000FC0186E001900D928150E1F7CA5BDF4F94
:104D90001882C654D040CE010E940925DF91CF91E0
:104DA0001F910F91FF90EF90DF90CF9008959C019D
:104DB000FB0182819381A481B581F9018283938370
:104DC000A483B583178216820895CF93DF93FB01E6
:104DD00001C0319680818823E1F7EB01A0E0B0E0CB
:104DE00020E030E021C06E3261F42F3F310509F040
:104DF0007CF5FA01EA0FFB1F2283119620E030E0D8
:104E000012C0C901E3E0880F991FEA95E1F7220F6C
:104E1000331F820F931F262F332727FD30952053F2
:104E20003040280F391F21966881662319F0A4307D
:104E3000B105CCF22F3F310509F054F4A430B1058F
:104E40003CF4A40FB51F12962C9321E030E002C071
:104E500020E030E0C901DF91CF9108950F9387E7FB
:104E600096E060E040E020E000E00E945A3B0F91B5
:104E700008952F923F924F925F926F927F928F92FE
:104E80009F92AF92BF92CF92DF92EF92FF920F93D9
:104E90001F93DF93CF93CDB7DEB769970FB6F89422
:104EA000DEBF0FBECDBF4C018B011A010E94F53948
:104EB0002B013C01F8E0EF2EF12CE80CF91C580115
:104EC000CC24DD2414C00E94F539641975098609C3
:104ED0009709A616B706C806D90618F42FEF3FEFB4
:104EE0000BC162E370E080E090E00E94293AC701C4
:104EF0000E94942F1816190634F7F4012281338189
:104F000044815581818D928DA38DB48D8A879B8735
:104F1000AC87BD87281739074A075B0709F0EAC045
:104F2000858D968DC59709F0E5C000C18E01025FA1
:104F30001F4FC701B8014CE050E00E94462FF80116
:104F4000528143815B834A83F401268137818E85B8
:104F50009F852817390711F457FD06C0C7010E9425
:104F60000E2F2CEF3FEFC8C04F705270452B31F021
:104F7000C7010E940E2F2BEF3FEFBEC0F8017680D5
:104F800067806114710441F0AA24BB2448012E01FA
:104F90000894411C511C28C0C7010E940E2F2AEF03
:104FA0003FEFAAC0C701B20141E050E00E94462F86
:104FB0008981882321F408C0C7010E94692F898153
:104FC000815089838F5FC1F78981882359F700E079
:104FD00010E0C7010E94692F0F5F1F4F04301105B9
:104FE000C1F70894A11CB11CF401D480C580AC1495
:104FF000BD04C0F244245524C701BE016F5F7F4F3A
:1050000041E050E00E94462F9981892F807C61F415
:10501000992321F40DC0C7010E94692F8981815015
:1050200089838F5FC1F704C0C7010E94692F19826D
:105030008981882309F7C701BE016C5F7F4F42E079
:1050400050E00E94462FC701BE016A5F7F4F42E0D9
:1050500050E00E94462F00E010E0C7010E94692F37
:105060000F5F1F4F04301105C1F7C701BE016E5F0E
:105070007F4F42E050E00E94462FDC80CD80F1E07F
:10508000CF16D10419F5BE80AF8081E0A816B10417
:10509000E9F49A818B81049731F0C7010E940E2FA9
:1050A00027EF3FEF29C0E2E0F0E02E0E3F1EC701E0
:1050B000B10144E050E00E94462F21E030E01CC0E6
:1050C000C7010E94692F0F5F1F4F02C000E010E070
:1050D0009A808B800815190598F30894411C511C7F
:1050E0004614570408F488CFC7010E940E2F26EFFC
:1050F0003FEF02C02EEF3FEFC90169960FB6F8945B
:10510000DEBF0FBECDBFCF91DF911F910F91FF90FA
:10511000EF90DF90CF90BF90AF909F908F907F9057
:105120006F905F904F903F902F9008958DEC92E09C
:1051300099878887C7010E94F22E0C970CF0F6CE53
:105140002DEF3FEFD9CF6F927F928F929F92AF92C8
:10515000BF92CF92DF92EF92FF920F931F93DF9354
:10516000CF9300D00F92CDB7DEB78C01F62EE72E8D
:105170000E94F539F80177836683B8E0CB2ED12CF5
:10518000C00ED11E0A5F1F4FC601B80142E050E0B9
:105190000E94E82F81E090E09B838A83A2E08A2E20
:1051A000912C8C0E9D1EC601B40142E050E00E947D
:1051B000E82F80E091E09B838A83C601B40142E03E
:1051C00050E00E94E82F1B821A82C601B40142E01F
:1051D00050E00E94E82FC601B40142E050E00E9476
:1051E000E82FC601B40142E050E00E94E82F2F2DC5
:1051F0003E2DC9018C017C013E010894611C711C8B
:1052000020C00894E11CF11CF7018081882311F073
:105210008E32B9F75701A01AB10A1A141B0474F49C
:105220008E2D801B8983C601B30141E050E00E94AE
:10523000E82FC601B801A5010E94E82F87010F5F82
:105240001F4FF7018081882311F07801DDCF19828B
:10525000C601BE016F5F7F4F41E050E00E94E82F22
:1052600000E011E01B830A83C601B40142E050E074
:105270000E94E82F1B830A83C601B40142E050E07C
:105280000E94E82F81E090E00F900F900F90CF9157
:10529000DF911F910F91FF90EF90DF90CF90BF9023
:1052A000AF909F908F907F906F9008958F929F9274
:1052B000AF92BF92CF92DF92EF92FF920F931F9324
:1052C000DF93CF9300D000D000D0CDB7DEB76C0114
:1052D0007B014A010E94E526892B19F001E010E0CC
:1052E00067C0F6012281338144815581809179061E
:1052F00090917A06A0917B06B0917C062817390719
:105300004A075B0719F40EEF1FEF52C018E0A12EF9
:10531000B12CAC0CBD1C0E94F5399B01AC012F7067
:10532000307020503C4FC501B9010E94AC30813033
:1053300019F000E010E03CC08DEC92E09A83898384
:10534000F60182819381A481B5818B839C83AD8397
:10535000BE83C501BE016F5F7F4F45E350E00E94F1
:1053600008308C01009709F1C601B7010E94A328FB
:105370008C010097D1F0C5010E9403308C01009789
:10538000A1F0EE24FF24C60168E873E1A4010E94A5
:1053900039278C010894E11CF11CF3E0EF16F104AD
:1053A00021F08FEF0F3F180771F3C5010E9497306E
:1053B000C80126960FB6F894DEBF0FBECDBFCF91C1
:1053C000DF911F910F91FF90EF90DF90CF90BF90F2
:1053D000AF909F908F900895DB01FC012DEC32E09F
:1053E0003183208312962D913D914D915C911597BB
:1053F000228333834483558308950F938DE896E089
:1054000060E040E020E000E00E945A3B85E896E042
:105410000E94D53B0F9108956F927F928F929F9239
:10542000AF92BF92CF92DF92EF92FF920F931F93B2
:105430003C015B016A01490181E197E00E94F3347C
:1054400089E090E0B50146E050E00E94083382E038
:1054500090E0C80ED91E8FE090E0B60144E050E025
:105460000E9408330E5F1F4F81E090E0B80144E0D6
:1054700050E00E940833E2E0F0E0EE0EFF1E85E00F
:1054800090E0B70144E050E00E940833F4018281CB
:105490009381A481B581F30182839383A483B5832F
:1054A0001F910F91FF90EF90DF90CF90BF90AF9042
:1054B0009F908F907F906F900895CF92DF92EF92A0
:1054C000FF920F931F93DF93CF93CDB7DEB76E9705
:1054D0000FB6F894DEBF0FBECDBF6C017B0180918B
:1054E0009306882371F483E996E00E94EE3B892BB2
:1054F00041F082EE96E00E94113083E996E00E942E
:10550000F83B8BE996E0F6019783868381E197E08B
:105510000E94F33489E090E0B70146E050E00E9439
:105520000833CE01019660E040E020E000E00E94F8
:105530005A3B8FE090E0BE016D5F7F4F44E050E04A
:105540000E940833F60186819781B70120E63AEE82
:1055500040E050E0F0EAEF2EFFE0FF2E012D112D8C
:105560000E948C268C018130910509F040C0F60123
:1055700066817781CE0107960E9436218FE090E008
:10558000BE01675F7F4F44E050E00E940833F601A0
:1055900066817781CE010D960E94202181E090E006
:1055A000BE01615F7F4F44E050E00E940833F60186
:1055B00066817781CE0143960E942B2185E090E0A1
:1055C000BE016B5E7F4F44E050E00E940833F6015D
:1055D00066817781CE0149960E9415218B8D9C8D25
:1055E000AD8DBE8DF60182839383A483B583C801FC
:1055F0006E960FB6F894DEBF0FBECDBFCF91DF9190
:105600001F910F91FF90EF90DF90CF900895FC01D4
:105610001382128288EE93E0A0E0B0E08483958349
:10562000A683B78383E892E091838083648708959B
:10563000DF93CF930F92CDB7DEB7FC016983A081D2
:10564000B18112962D913C911397BE016F5F7F4FF0
:1056500041E050E0F90109950F90CF91DF91089555
:10566000CF93DF93EC0107C0E881F9810680F781D1
:10567000E02DCE010995E881F9810480F581E02DC6
:10568000CE010995892B81F7DF91CF91089520E014
:10569000FC018485843009F021E0822F08950F9366
:1056A0008DEF96E060E040E020E000E00E945A3B91
:1056B0000F910895FC018485843011F480E00895F1
:1056C000982F80E08D5F9B4F0E942F330895CF93DA
:1056D000DF93EC018C85843011F480E019C0CE0199
:1056E0000E945A2B843191F0882381F0883171F027
:1056F0008C3151F4E881F9810480F581E02DCE01EF
:10570000099520E0892B19F021E001C020E0822FCB
:10571000DF91CF910895EF92FF920F931F93CF9354
:10572000DF93EC018C85843089F10E94E7300E9480
:10573000F5397B018C01CE010E945A2B882301F19F
:105740000E94F5396E197F09800B910B685E7340DA
:1057500080409040A8F461E070E080E090E00E941A
:10576000293AE9CF8C850E943931EC85F0E0EE0FC3
:10577000FF1FE358F94F1182108284E08C8706C026
:10578000CE010E945A2B882381F3ECCFDF91CF9179
:105790001F910F91FF90EF9008950F931F93DF9348
:1057A000CF930F92CDB7DEB78C01DC01ED91FC9168
:1057B0000480F581E02D0995892B19F42FEF3FEF37
:1057C0000AC0F8018485BE016F5F7F4F0E949E3240
:1057D0008981282F30E0C9010F90CF91DF911F916F
:1057E0000F910895FC0184850E94AD320895DF93E6
:1057F000CF930F92CDB7DEB7FC018485BE016F5FFA
:105800007F4F41E050E00E94AD32181619061CF09F
:105810002FEF3FEF03C08981282F30E0C9010F909F
:10582000CF91DF910895FC016485643019F420E084
:1058300030E005C081E197E00E94E5339C01C90199
:1058400008950F931F93CF93DF938C01EA01FC011E
:105850008485843019F481E090E007C00E944732CB
:10586000892B39F481E090E0F80193838283C0E0D2
:10587000D0E0CE01DF91CF911F910F910895AF92AB
:10588000BF92CF92DF92EF92FF920F931F93CF932D
:10589000DF937C016B015A01FC018485843009F09F
:1058A00056C0C0E0D0E003E014E0C8010E942F33EE
:1058B000882321F0883111F08C3119F4F701C48765
:1058C00006C0219600501F4FC430D10571F7F70173
:1058D00024852430E1F18091290290912A020196D9
:1058E00090932A0280932902892B31F480E094E07E
:1058F00090932A02809329024091290250912A0212
:10590000822F61E020E00E94783182E090E0C80EB2
:10591000D91EF7018485B601A5010E94DC3109C0BA
:1059200061E070E080E090E00E94293AC7010E94A7
:105930005A2B882321F484E0F701848708C0C7012B
:105940000E945A2B873161F721E030E002C020E04D
:1059500030E0C901DF91CF911F910F91FF90EF903F
:10596000DF90CF90BF90AF9008956F927F928F920B
:105970009F92AF92BF92CF92DF92EF92FF920F93DE
:105980001F93DF93CF93CDB7DEB7E5970FB6F894AB
:10599000DEBF0FBECDBF4C015B013A0193E1E92EA2
:1059A000F12CEC0EFD1EC7010E94D53BCE014B969B
:1059B0000E9411306E010894C11CD11CC6010E94C6
:1059C000D53B8E01095F1F4FC80165E876E00E9454
:1059D000EC29C701B8010E94D726C701B501A6016D
:1059E0000E9456299C0181309105C9F4D401ED91A2
:1059F000FC910484F585E02D8DEC92E09E878D87E7
:105A00008B819C81AD81BE818F87988BA98BBA8B4E
:105A1000C401BE01635F7F4FA30109959C01C901C9
:105A2000E5960FB6F894DEBF0FBECDBFCF91DF91E4
:105A30001F910F91FF90EF90DF90CF90BF90AF90AC
:105A40009F908F907F906F900895FC011382128237
:105A50008FE992E091838083758364830895DF9357
:105A6000CF930F92CDB7DEB7FC016983A081B181DE
:105A700012962D913C911397BE016F5F7F4F41E0CD
:105A800050E0F90109950F90CF91DF9108950F93A0
:105A900083E097E060E040E020E000E00E945A3BB5
:105AA0000F9108958F929F92BF92CF92DF92EF92C3
:105AB000FF920F931F93DF93CF93CDB7DEB72D9750
:105AC0000FB6F894DEBF0FBECDBF7C010DE716E028
:105AD00088249924BB246E010894C11CD11CC601E2
